{
  "_format": "hh-sol-artifact-1",
  "contractName": "ProjectToken",
  "sourceName": "contracts/ProjectToken.sol",
  "abi": [
    {
      "inputs": [
        {
          "internalType": "address",
          "name": "initialOwner",
          "type": "address"
        }
      ],
      "stateMutability": "nonpayable",
      "type": "constructor"
    },
    {
      "inputs": [
        {
          "internalType": "address",
          "name": "spender",
          "type": "address"
        },
        {
          "internalType": "uint256",
          "name": "allowance",
          "type": "uint256"
        },
        {
          "internalType": "uint256",
          "name": "needed",
          "type": "uint256"
        }
      ],
      "name": "ERC20InsufficientAllowance",
      "type": "error"
    },
    {
      "inputs": [
        {
          "internalType": "address",
          "name": "sender",
          "type": "address"
        },
        {
          "internalType": "uint256",
          "name": "balance",
          "type": "uint256"
        },
        {
          "internalType": "uint256",
          "name": "needed",
          "type": "uint256"
        }
      ],
      "name": "ERC20InsufficientBalance",
      "type": "error"
    },
    {
      "inputs": [
        {
          "internalType": "address",
          "name": "approver",
          "type": "address"
        }
      ],
      "name": "ERC20InvalidApprover",
      "type": "error"
    },
    {
      "inputs": [
        {
          "internalType": "address",
          "name": "receiver",
          "type": "address"
        }
      ],
      "name": "ERC20InvalidReceiver",
      "type": "error"
    },
    {
      "inputs": [
        {
          "internalType": "address",
          "name": "sender",
          "type": "address"
        }
      ],
      "name": "ERC20InvalidSender",
      "type": "error"
    },
    {
      "inputs": [
        {
          "internalType": "address",
          "name": "spender",
          "type": "address"
        }
      ],
      "name": "ERC20InvalidSpender",
      "type": "error"
    },
    {
      "inputs": [
        {
          "internalType": "address",
          "name": "owner",
          "type": "address"
        }
      ],
      "name": "OwnableInvalidOwner",
      "type": "error"
    },
    {
      "inputs": [
        {
          "internalType": "address",
          "name": "account",
          "type": "address"
        }
      ],
      "name": "OwnableUnauthorizedAccount",
      "type": "error"
    },
    {
      "anonymous": false,
      "inputs": [
        {
          "indexed": true,
          "internalType": "address",
          "name": "owner",
          "type": "address"
        },
        {
          "indexed": true,
          "internalType": "address",
          "name": "spender",
          "type": "address"
        },
        {
          "indexed": false,
          "internalType": "uint256",
          "name": "value",
          "type": "uint256"
        }
      ],
      "name": "Approval",
      "type": "event"
    },
    {
      "anonymous": false,
      "inputs": [
        {
          "indexed": true,
          "internalType": "address",
          "name": "previousOwner",
          "type": "address"
        },
        {
          "indexed": true,
          "internalType": "address",
          "name": "newOwner",
          "type": "address"
        }
      ],
      "name": "OwnershipTransferred",
      "type": "event"
    },
    {
      "anonymous": false,
      "inputs": [
        {
          "indexed": true,
          "internalType": "address",
          "name": "to",
          "type": "address"
        },
        {
          "indexed": false,
          "internalType": "uint256",
          "name": "amount",
          "type": "uint256"
        },
        {
          "indexed": false,
          "internalType": "string",
          "name": "reason",
          "type": "string"
        }
      ],
      "name": "TokensMinted",
      "type": "event"
    },
    {
      "anonymous": false,
      "inputs": [
        {
          "indexed": true,
          "internalType": "address",
          "name": "from",
          "type": "address"
        },
        {
          "indexed": true,
          "internalType": "address",
          "name": "to",
          "type": "address"
        },
        {
          "indexed": false,
          "internalType": "uint256",
          "name": "value",
          "type": "uint256"
        }
      ],
      "name": "Transfer",
      "type": "event"
    },
    {
      "inputs": [
        {
          "internalType": "address",
          "name": "owner",
          "type": "address"
        },
        {
          "internalType": "address",
          "name": "spender",
          "type": "address"
        }
      ],
      "name": "allowance",
      "outputs": [
        {
          "internalType": "uint256",
          "name": "",
          "type": "uint256"
        }
      ],
      "stateMutability": "view",
      "type": "function"
    },
    {
      "inputs": [
        {
          "internalType": "address",
          "name": "spender",
          "type": "address"
        },
        {
          "internalType": "uint256",
          "name": "value",
          "type": "uint256"
        }
      ],
      "name": "approve",
      "outputs": [
        {
          "internalType": "bool",
          "name": "",
          "type": "bool"
        }
      ],
      "stateMutability": "nonpayable",
      "type": "function"
    },
    {
      "inputs": [
        {
          "internalType": "address",
          "name": "account",
          "type": "address"
        }
      ],
      "name": "balanceOf",
      "outputs": [
        {
          "internalType": "uint256",
          "name": "",
          "type": "uint256"
        }
      ],
      "stateMutability": "view",
      "type": "function"
    },
    {
      "inputs": [
        {
          "internalType": "address[]",
          "name": "recipients",
          "type": "address[]"
        },
        {
          "internalType": "uint256[]",
          "name": "amounts",
          "type": "uint256[]"
        }
      ],
      "name": "batchMint",
      "outputs": [],
      "stateMutability": "nonpayable",
      "type": "function"
    },
    {
      "inputs": [],
      "name": "decimals",
      "outputs": [
        {
          "internalType": "uint8",
          "name": "",
          "type": "uint8"
        }
      ],
      "stateMutability": "pure",
      "type": "function"
    },
    {
      "inputs": [],
      "name": "getTotalSupply",
      "outputs": [
        {
          "internalType": "uint256",
          "name": "",
          "type": "uint256"
        }
      ],
      "stateMutability": "view",
      "type": "function"
    },
    {
      "inputs": [
        {
          "internalType": "address",
          "name": "to",
          "type": "address"
        },
        {
          "internalType": "uint256",
          "name": "amount",
          "type": "uint256"
        }
      ],
      "name": "mint",
      "outputs": [],
      "stateMutability": "nonpayable",
      "type": "function"
    },
    {
      "inputs": [],
      "name": "name",
      "outputs": [
        {
          "internalType": "string",
          "name": "",
          "type": "string"
        }
      ],
      "stateMutability": "view",
      "type": "function"
    },
    {
      "inputs": [],
      "name": "owner",
      "outputs": [
        {
          "internalType": "address",
          "name": "",
          "type": "address"
        }
      ],
      "stateMutability": "view",
      "type": "function"
    },
    {
      "inputs": [],
      "name": "renounceOwnership",
      "outputs": [],
      "stateMutability": "nonpayable",
      "type": "function"
    },
    {
      "inputs": [],
      "name": "symbol",
      "outputs": [
        {
          "internalType": "string",
          "name": "",
          "type": "string"
        }
      ],
      "stateMutability": "view",
      "type": "function"
    },
    {
      "inputs": [],
      "name": "totalSupply",
      "outputs": [
        {
          "internalType": "uint256",
          "name": "",
          "type": "uint256"
        }
      ],
      "stateMutability": "view",
      "type": "function"
    },
    {
      "inputs": [
        {
          "internalType": "address",
          "name": "to",
          "type": "address"
        },
        {
          "internalType": "uint256",
          "name": "value",
          "type": "uint256"
        }
      ],
      "name": "transfer",
      "outputs": [
        {
          "internalType": "bool",
          "name": "",
          "type": "bool"
        }
      ],
      "stateMutability": "nonpayable",
      "type": "function"
    },
    {
      "inputs": [
        {
          "internalType": "address",
          "name": "from",
          "type": "address"
        },
        {
          "internalType": "address",
          "name": "to",
          "type": "address"
        },
        {
          "internalType": "uint256",
          "name": "value",
          "type": "uint256"
        }
      ],
      "name": "transferFrom",
      "outputs": [
        {
          "internalType": "bool",
          "name": "",
          "type": "bool"
        }
      ],
      "stateMutability": "nonpayable",
      "type": "function"
    },
    {
      "inputs": [
        {
          "internalType": "address",
          "name": "newOwner",
          "type": "address"
        }
      ],
      "name": "transferOwnership",
      "outputs": [],
      "stateMutability": "nonpayable",
      "type": "function"
    }
  ],
  "bytecode": "0x60806040523480156200001157600080fd5b506040516200110c3803806200110c83398101604081905262000034916200012d565b806040518060400160405280600c81526020016b283937b532b1ba2a37b5b2b760a11b8152506040518060400160405280600381526020016250544b60e81b815250816003908162000087919062000204565b50600462000096828262000204565b5050506001600160a01b038116620000c857604051631e4fbdf760e01b81526000600482015260240160405180910390fd5b620000d381620000db565b5050620002d0565b600580546001600160a01b038381166001600160a01b0319831681179093556040519116919082907f8be0079c531659141344cd1fd0a4f28419497f9722a3daafe3b4186f6b6457e090600090a35050565b6000602082840312156200014057600080fd5b81516001600160a01b03811681146200015857600080fd5b9392505050565b634e487b7160e01b600052604160045260246000fd5b600181811c908216806200018a57607f821691505b602082108103620001ab57634e487b7160e01b600052602260045260246000fd5b50919050565b601f821115620001ff57600081815260208120601f850160051c81016020861015620001da5750805b601f850160051c820191505b81811015620001fb57828155600101620001e6565b5050505b505050565b81516001600160401b038111156200022057620002206200015f565b620002388162000231845462000175565b84620001b1565b602080601f831160018114620002705760008415620002575750858301515b600019600386901b1c1916600185901b178555620001fb565b600085815260208120601f198616915b82811015620002a15788860151825594840194600190910190840162000280565b5085821015620002c05787850151600019600388901b60f8161c191681555b5050505050600190811b01905550565b610e2c80620002e06000396000f3fe608060405234801561001057600080fd5b50600436106100f55760003560e01c806370a0823111610097578063a9059cbb11610066578063a9059cbb146101eb578063c4e41b22146101fe578063dd62ed3e14610206578063f2fde38b1461023f57600080fd5b806370a0823114610197578063715018a6146101c05780638da5cb5b146101c857806395d89b41146101e357600080fd5b806323b872dd116100d357806323b872dd1461014d578063313ce5671461016057806340c10f191461016f578063685731071461018457600080fd5b806306fdde03146100fa578063095ea7b31461011857806318160ddd1461013b575b600080fd5b610102610252565b60405161010f9190610af3565b60405180910390f35b61012b610126366004610b5d565b6102e4565b604051901515815260200161010f565b6002545b60405190815260200161010f565b61012b61015b366004610b87565b6102fe565b6040516012815260200161010f565b61018261017d366004610b5d565b610322565b005b610182610192366004610c0f565b6103ff565b61013f6101a5366004610c7b565b6001600160a01b031660009081526020819052604090205490565b610182610651565b6005546040516001600160a01b03909116815260200161010f565b610102610665565b61012b6101f9366004610b5d565b610674565b61013f610682565b61013f610214366004610c9d565b6001600160a01b03918216600090815260016020908152604080832093909416825291909152205490565b61018261024d366004610c7b565b610692565b60606003805461026190610cd0565b80601f016020809104026020016040519081016040528092919081815260200182805461028d90610cd0565b80156102da5780601f106102af576101008083540402835291602001916102da565b820191906000526020600020905b8154815290600101906020018083116102bd57829003601f168201915b5050505050905090565b6000336102f2818585610710565b60019150505b92915050565b60003361030c858285610722565b6103178585856107a1565b506001949350505050565b61032a610800565b6001600160a01b0382166103595760405162461bcd60e51b815260040161035090610d0a565b60405180910390fd5b600081116103795760405162461bcd60e51b815260040161035090610d53565b610383828261082d565b816001600160a01b03167f9d89e36eadf856db0ad9ffb5a569e07f95634dddd9501141ecf04820484ad0dc826040516103f39181526040602082018190526019908201527f50726f6a65637420617070726f7665642062792061646d696e00000000000000606082015260800190565b60405180910390a25050565b610407610800565b8281146104625760405162461bcd60e51b8152602060048201526024808201527f50726f6a656374546f6b656e3a20617272617973206c656e677468206d69736d6044820152630c2e8c6d60e31b6064820152608401610350565b826104af5760405162461bcd60e51b815260206004820152601a60248201527f50726f6a656374546f6b656e3a20656d707479206172726179730000000000006044820152606401610350565b60005b8381101561064a5760008585838181106104ce576104ce610d9e565b90506020020160208101906104e39190610c7b565b6001600160a01b0316036105095760405162461bcd60e51b815260040161035090610d0a565b600083838381811061051d5761051d610d9e565b90506020020135116105415760405162461bcd60e51b815260040161035090610d53565b61058985858381811061055657610556610d9e565b905060200201602081019061056b9190610c7b565b84848481811061057d5761057d610d9e565b9050602002013561082d565b84848281811061059b5761059b610d9e565b90506020020160208101906105b09190610c7b565b6001600160a01b03167f9d89e36eadf856db0ad9ffb5a569e07f95634dddd9501141ecf04820484ad0dc8484848181106105ec576105ec610d9e565b905060200201356040516106309181526040602082018190526016908201527510985d18da081c1c9bda9958dd08185c1c1c9bdd985b60521b606082015260800190565b60405180910390a28061064281610dca565b9150506104b2565b5050505050565b610659610800565b6106636000610867565b565b60606004805461026190610cd0565b6000336102f28185856107a1565b600061068d60025490565b905090565b61069a610800565b6001600160a01b0381166107045760405162461bcd60e51b815260206004820152602b60248201527f50726f6a656374546f6b656e3a206e6577206f776e657220697320746865207a60448201526a65726f206164647265737360a81b6064820152608401610350565b61070d816108b9565b50565b61071d83838360016108f4565b505050565b6001600160a01b0383811660009081526001602090815260408083209386168352929052205460001981101561079b578181101561078c57604051637dc7a0d960e11b81526001600160a01b03841660048201526024810182905260448101839052606401610350565b61079b848484840360006108f4565b50505050565b6001600160a01b0383166107cb57604051634b637e8f60e11b815260006004820152602401610350565b6001600160a01b0382166107f55760405163ec442f0560e01b815260006004820152602401610350565b61071d8383836109c9565b6005546001600160a01b031633146106635760405163118cdaa760e01b8152336004820152602401610350565b6001600160a01b0382166108575760405163ec442f0560e01b815260006004820152602401610350565b610863600083836109c9565b5050565b600580546001600160a01b038381166001600160a01b0319831681179093556040519116919082907f8be0079c531659141344cd1fd0a4f28419497f9722a3daafe3b4186f6b6457e090600090a35050565b6108c1610800565b6001600160a01b0381166108eb57604051631e4fbdf760e01b815260006004820152602401610350565b61070d81610867565b6001600160a01b03841661091e5760405163e602df0560e01b815260006004820152602401610350565b6001600160a01b03831661094857604051634a1406b160e11b815260006004820152602401610350565b6001600160a01b038085166000908152600160209081526040808320938716835292905220829055801561079b57826001600160a01b0316846001600160a01b03167f8c5be1e5ebec7d5bd14f71427d1e84f3dd0314c0f7b2291e5b200ac8c7c3b925846040516109bb91815260200190565b60405180910390a350505050565b6001600160a01b0383166109f45780600260008282546109e99190610de3565b90915550610a669050565b6001600160a01b03831660009081526020819052604090205481811015610a475760405163391434e360e21b81526001600160a01b03851660048201526024810182905260448101839052606401610350565b6001600160a01b03841660009081526020819052604090209082900390555b6001600160a01b038216610a8257600280548290039055610aa1565b6001600160a01b03821660009081526020819052604090208054820190555b816001600160a01b0316836001600160a01b03167fddf252ad1be2c89b69c2b068fc378daa952ba7f163c4a11628f55a4df523b3ef83604051610ae691815260200190565b60405180910390a3505050565b600060208083528351808285015260005b81811015610b2057858101830151858201604001528201610b04565b506000604082860101526040601f19601f8301168501019250505092915050565b80356001600160a01b0381168114610b5857600080fd5b919050565b60008060408385031215610b7057600080fd5b610b7983610b41565b946020939093013593505050565b600080600060608486031215610b9c57600080fd5b610ba584610b41565b9250610bb360208501610b41565b9150604084013590509250925092565b60008083601f840112610bd557600080fd5b50813567ffffffffffffffff811115610bed57600080fd5b6020830191508360208260051b8501011115610c0857600080fd5b9250929050565b60008060008060408587031215610c2557600080fd5b843567ffffffffffffffff80821115610c3d57600080fd5b610c4988838901610bc3565b90965094506020870135915080821115610c6257600080fd5b50610c6f87828801610bc3565b95989497509550505050565b600060208284031215610c8d57600080fd5b610c9682610b41565b9392505050565b60008060408385031215610cb057600080fd5b610cb983610b41565b9150610cc760208401610b41565b90509250929050565b600181811c90821680610ce457607f821691505b602082108103610d0457634e487b7160e01b600052602260045260246000fd5b50919050565b60208082526029908201527f50726f6a656374546f6b656e3a2063616e6e6f74206d696e7420746f207a65726040820152686f206164647265737360b81b606082015260800190565b6020808252602b908201527f50726f6a656374546f6b656e3a20616d6f756e74206d7573742062652067726560408201526a061746572207468616e20360ac1b606082015260800190565b634e487b7160e01b600052603260045260246000fd5b634e487b7160e01b600052601160045260246000fd5b600060018201610ddc57610ddc610db4565b5060010190565b808201808211156102f8576102f8610db456fea2646970667358221220ab880fae9e379b3939108039b106b172ec78222135ccdcab93c391be7187d67c64736f6c63430008140033",
  "linkReferences": {},
  "deployedLinkReferences": {}
}